:100000000C9463000C948B000C948B000C948B006C
:100010000C948B000C948B000C948B000C948B0034
:100020000C948B000C948B000C948B000C948B0024
:100030000C948B000C948B000C948B000C948B0014
:100040000C94EF010C948B000C9464050C94A705A0
:100050000C948B000C948B000C948B000C948B00F4
:100060000C948B000C948B00000000070002010030
:100070000003040600000000000000000102040864
:100080001020408001020408102001020408102002
:10009000040404040404040402020202020203032E
:1000A00003030303000000002300260029000000D2
:1000B0000000250028002B0000000000240027007D
:1000C0002A00E401630611241FBECFEFD8E0DEBF93
:1000D000CDBF11E0A0E0B1E0ECECFDE002C0059086
:1000E0000D92AE34B107D9F722E0AEE4B1E001C021
:1000F0001D92A930B207E1F710E0C6ECD0E004C0D1
:100100002297FE010E94E006C23CD107C9F70E9477
:10011000C5040C94B9060C9400003F924F925F9274
:100120006F927F928F929F92AF92BF92CF92DF9207
:10013000EF92FF920F931F93CF93DF9300D000D0E5
:100140001F92CDB7DEB75C01562E19821A821B8230
:100150001C821D8261E0852D0E94FD0260E0852DDC
:100160000E94360362E170E080E090E00E94680245
:1001700061E0852D0E94360388E290E00E948E02A5
:1001800060E0852D0E94FD0201E117E2852D0E94AD
:100190006C03892B41F40150110901151105B1F7C8
:1001A0008EEF9FEF76C001E117E2852D0E946C0370
:1001B000019731F40150110901151105B1F7F0CF84
:1001C00008E210E0312C37E0432E88248394912CF0
:1001D00021E1E22E27E2F22E852D0E946C03892B6D
:1001E00039F481E0E81AF108E114F104A9F7D8CF55
:1001F0000E9445026B017C0191E1692E97E2792E04
:10020000852D0E946C03019739F4E1E06E1A7108A4
:1002100061147104A9F7C4CF0E9445026C197D09CD
:100220008E099F09693271058105910578F0E1E039
:10023000F0E0EC0FFD1FE30DF11D2081C401042C43
:1002400001C0880F0A94EAF7282B2083411004C0CC
:10025000339487E0482E01C04A94015011090115DA
:10026000110509F0B5CF2981822F90E0F501918326
:1002700080833B81832F90E093838283230F81E0EF
:1002800090E03D81321302C080E090E0919581952D
:1002900091090F900F900F900F900F90DF91CF91D9
:1002A0001F910F91FF90EF90DF90CF90BF90AF9094
:1002B0009F908F907F906F905F904F903F900895A8
:1002C00040E052EC61E070E08FE591E00E94E205D1
:1002D00060E083E10E94FD0261E071E08FE591E062
:1002E0000C94F0030F931F930E94390200914E016A
:1002F00010914F012091500130915101601B710B01
:10030000820B930B653F714081059105E0F0809170
:100310000001882339F060E08DE00E9436031092DE
:10032000000107C061E08DE00E94360381E0809308
:1003300000010E94390260934E0170934F01809337
:100340005001909351011F910F9108950E947201E5
:1003500064E070E082E591E00E948D008FE591E01D
:100360000E94DC0367E071E08FE591E00E94F003FA
:100370006BE171E08FE591E00E94D303609154013D
:10038000709155014AE050E08FE591E00E94AD0484
:1003900069E271E08FE591E00E94D3036091520120
:1003A000709153014AE050E08FE591E00E94A5046E
:1003B00067E371E08FE591E00E94D30364EF71E0A1
:1003C00080E090E00C9468020E94390260934E0134
:1003D00070934F01809350019093510108951F92A3
:1003E0000F920FB60F9211242F933F938F939F93E9
:1003F000AF93BF938091570190915801A0915901FB
:10040000B0915A013091560123E0230F2D3720F48B
:100410000196A11DB11D05C026E8230F0296A11D5E
:10042000B11D209356018093570190935801A093DA
:100430005901B0935A0180915B0190915C01A091A8
:100440005D01B0915E010196A11DB11D80935B011C
:1004500090935C01A0935D01B0935E01BF91AF9159
:100460009F918F913F912F910F900FBE0F901F90F2
:1004700018952FB7F89460915701709158018091A9
:10048000590190915A012FBF08953FB7F894809178
:100490005B0190915C01A0915D01B0915E0126B578
:1004A000A89B05C02F3F19F00196A11DB11D3FBFAC
:1004B0006627782F892F9A2F620F711D811D911D3C
:1004C00042E0660F771F881F991F4A95D1F708955C
:1004D000CF92DF92EF92FF92CF93DF936B017C017B
:1004E0000E944502EB01C114D104E104F10479F04A
:1004F0000E9445026C1B7D0B683E7340A0F381E0B7
:10050000C81AD108E108F108C851DC4FECCFDF91DF
:10051000CF91FF90EF90DF90CF90089501970097D3
:1005200039F0880F991F880F991F02970197F1F7EB
:100530000895789484B5826084BD84B5816084BD5B
:1005400085B5826085BD85B5816085BDEEE6F0E04C
:10055000808181608083E1E8F0E0108280818260A8
:100560008083808181608083E0E8F0E08081816029
:100570008083E1EBF0E0808184608083E0EBF0E059
:10058000808181608083EAE7F0E0808184608083FD
:1005900080818260808380818160808380818068A7
:1005A00080831092C1000895833081F028F4813057
:1005B00099F08230A1F008958630A9F08730B9F023
:1005C0008430D1F4809180008F7D03C080918000C1
:1005D0008F7780938000089584B58F7702C084B5AB
:1005E0008F7D84BD08958091B0008F7703C0809186
:1005F000B0008F7D8093B0000895CF93DF9390E09B
:10060000FC01E458FF4F2491FC01E057FF4F849117
:10061000882349F190E0880F991FFC01E854FF4FAF
:10062000A591B49182559F4FFC01C591D4919FB77C
:10063000611108C0F8948C91209582238C93888155
:1006400082230AC0623051F4F8948C91322F309595
:1006500083238C938881822B888304C0F8948C91A7
:10066000822B8C939FBFDF91CF9108950F931F939F
:10067000CF93DF931F92CDB7DEB7282F30E0F9017B
:10068000E859FF4F8491F901E458FF4F1491F901A3
:10069000E057FF4F04910023C9F0882321F06983BC
:1006A0000E94D4026981E02FF0E0EE0FFF1FE255B7
:1006B000FF4FA591B4919FB7F8948C91611103C03D
:1006C0001095812301C0812B8C939FBF0F90DF91E8
:1006D000CF911F910F910895CF93DF93282F30E092
:1006E000F901E859FF4F8491F901E458FF4FD49183
:1006F000F901E057FF4FC491CC2391F081110E9482
:10070000D402EC2FF0E0EE0FFF1FEC55FF4FA59148
:10071000B4912C912D2381E090E021F480E002C07F
:1007200080E090E0DF91CF910895CF92DF92EF9239
:10073000FF920F931F93CF93DF936C017A01EB012C
:10074000E60EF71E00E010E0CE15DF0561F06991BE
:10075000D601ED91FC910190F081E02DC601099543
:10076000080F191FF1CFC801DF91CF911F910F9191
:10077000FF90EF90DF90CF9008956115710581F0A3
:10078000DB010D900020E9F7AD0141505109461BF6
:10079000570BDC01ED91FC910280F381E02D09946F
:1007A00080E090E008950C94BD03DC01ED91FC9194
:1007B0000190F081E02D09940F931F93CF93DF9365
:1007C000EC016DE00E94D5038C016AE0CE010E942D
:1007D000D503800F911FDF91CF911F910F91089545
:1007E0000F931F93CF93DF93EC010E94BD038C0105
:1007F000CE010E94DC03800F911FDF91CF911F91EA
:100800000F9108958F929F92AF92BF92CF92DF92F5
:10081000EF92FF920F931F93CF93DF93CDB7DEB785
:10082000A1970FB6F894DEBF0FBECDBF7C01C42EDA
:10083000E52FCB01D22E19A221E02D1510F02AE0D0
:10084000D22E8E010F5D1F4F8D2C912CA12CB12C1F
:100850006C2D7E2FA50194010E94BC068C2DD29E8A
:1008600080191124015011098A3014F4805D01C0EF
:10087000895CF8018083211531054105510521F07E
:10088000C22EE32FCA01E4CFB801C7010E94BD0305
:10089000A1960FB6F894DEBF0FBECDBFDF91CF910A
:1008A0001F910F91FF90EF90DF90CF90BF90AF908E
:1008B0009F908F900895CF92DF92EF92FF920F93C7
:1008C0001F93CF93DF93EC016A017B012115310562
:1008D00079F4E881F9810190F081E02D642FDF91B6
:1008E000CF911F910F91FF90EF90DF90CF900994DF
:1008F0002A303105E9F477FF1AC06DE20E94D50372
:100900008C0144275527BA014C195D096E097F09EE
:100910002AE0CE010E940204800F911FDF91CF9147
:100920001F910F91FF90EF90DF90CF9008952AE0F4
:10093000B701A601CE01DF91CF911F910F91FF90DA
:10094000EF90DF90CF900C9402049A01AB016627E0
:1009500057FD6095762F0C945B040F931F93CF93F4
:10096000DF93EC019A01AB01662757FD6095762F66
:100970000E945B048C01CE010E94DC03800F911F5A
:10098000DF91CF911F910F9108950E9499020E94CB
:100990006001CEE9D5E00E94A6012097E1F30E9414
:1009A0009E05F9CFFC0124853585F901E05CFF4FF8
:1009B00080819181329620813181821B930B8F73CC
:1009C00099270895FC0184859585FC01E05CFF4F23
:1009D000408151813296208131814217530741F085
:1009E0000190F081E02DE80FF91F808190E00895DB
:1009F0008FEF9FEF0895FC0184859585FC01E05CF5
:100A0000FF4F408151813296208131814217530737
:100A100079F0A081B181A80FB91F8C91208131811B
:100A20002F5F3F4F2F7333273183208390E008954A
:100A30008FEF9FEF0895FC0181A1882329F0A489FD
:100A4000B5898C9186FFFBCF11A20895CF93DF93D8
:100A5000FC0126853785D901A05CBF4F8D919C9103
:100A6000119701968F739927E901CE5BDF4F48817B
:100A7000598184179507D9F30D90BC91A02DA20F31
:100A8000B31F6C93A685B785A05CBF4F11969C934E
:100A90008E93A689B7892C9181E090E0078C02C0E3
:100AA000880F991F0A94E2F7282B2C9381E081A3E9
:100AB0000488F589E02D80818064808381E090E066
:100AC000DF91CF91089508951F920F920FB60F9264
:100AD00011242F933F934F938F939F93EF93FF9303
:100AE0008091C00082FD1CC04091C600809105022B
:100AF0009091060201968F739927209107023091F9
:100B000008028217930771F0E0910502F091060246
:100B1000EB53FE4F4083909306028093050202C080
:100B20008091C600FF91EF919F918F914F913F91DE
:100B30002F910F900FBE0F901F9018958FE591E0A9
:100B40000E94D204892B11F00C94630508951F9222
:100B50000F920FB60F9211242F933F938F939F9371
:100B6000EF93FF932091C1013091C2018091C301A5
:100B70009091C4012817390731F48091C1008F7D0D
:100B80008093C10014C0E091C301F091C401EF57FC
:100B9000FE4F20818091C3019091C40101968F7313
:100BA00099279093C4018093C3012093C600FF91BD
:100BB000EF919F918F913F912F910F900FBE0F90CA
:100BC0001F901895CF92DF92EF92FF92CF93DF9311
:100BD000EC016A017B01411581EE58076105710541
:100BE000F9F0EC89FD8981E090E008A002C0880F4F
:100BF000991F0A94E2F7808360E079E08DE390E04A
:100C0000A70196010E94BC062150310941095109F2
:100C10005695479537952795211580E1380798F027
:100C2000EC89FD89108260E874E88EE190E0A7010C
:100C300096010E94BC06215031094109510956957F
:100C4000479537952795E889F9893083EA89FB89A3
:100C5000208319A2EE89FF89408181E090E09C0108
:100C60000C8C02C0220F331F0A94E2F7422B408300
:100C7000EE89FF8940819C010D8C02C0220F331F39
:100C80000A94E2F7422B4083EE89FF8940819C0160
:100C90000E8C02C0220F331F0A94E2F7422B4083CE
:100CA000EE89FF8920810F8C02C0880F991F0A945A
:100CB000E2F7809582238083DF91CF91FF90EF90C0
:100CC000DF90CF900895109262011092610188EE3A
:100CD00093E0A0E0B0E08093630190936401A0935F
:100CE0006501B093660182E491E090936001809386
:100CF0005F0185EC91E090936C0180936B0181E83A
:100D000091E090936E0180936D0185EC90E090935B
:100D1000700180936F0184EC90E090937201809356
:100D2000710180EC90E0909374018093730181ECE9
:100D300090E0909376018093750182EC90E090931F
:100D400078018093770186EC90E090937A0180930C
:100D5000790184E080937B0183E080937C0187E0CC
:100D600080937D0185E080937E0181E080937F0107
:100D70000895F8940C94E406A1E21A2EAA1BBB1B5A
:100D8000FD010DC0AA1FBB1FEE1FFF1FA217B30757
:100D9000E407F50720F0A21BB30BE40BF50B661F6D
:100DA000771F881F991F1A9469F760957095809531
:100DB00090959B01AC01BD01CF010895EE0FFF1F7F
:0C0DC0000590F491E02D0994F894FFCF09
:100DCC00015374617274002D2D2D2D2D2D2044484E
:100DDC00543131202D2D2D2D2D2D0054656D706528
:100DEC007261747572653A200048756D6964697436
:100DFC00793A2020202000252020202020000000EF
:0E0E0C00000026059503D204FB04E2041B053A
:00000001FF
